:020000040800F2
:10000000000400206D03000881260008F90900089B
:100010007926000881040008B92B000800000000C0
:10002000000000000000000000000000E9280008B7
:100030000905000800000000D92700084929000828
:100040008B0300088B0300088B0300088B03000858
:100050008B0300088B0300088B0300088B03000848
:100060008B0300088B0300088B0300088904000839
:100070008B0300088B0300088B0300088B03000828
:100080008B0300088B0300088B0300088B03000818
:100090008B0300088B0300088B0300088B03000808
:1000A0008B0300088B0300088B0300088B030008F8
:1000B0008B0300088B0300088B0300088B030008E8
:1000C0008B0300088B0300088B0300088B030008D8
:1000D0008B0300088B0300088B030008B12B00087A
:1000E0008B0300088B030008000000008B0300084E
:1000F0008B0300088B0300088B0300088B030008A8
:100100008B0300088B0300088B0300088B03000897
:100110008B0300088B0300088B0300088B03000887
:100120008B0300088B0300088B0300088B03000877
:100130008B0300088B0300088B0300088B03000867
:1001400000000000000000000000000000000000AF
:100150008B0300088B0300088B0300088B03000847
:100160008B0300088B0300088B0300088B03000837
:100170008B0300088B0300088B03000800000000BD
:100180008B0300088B0300088B0300088B03000817
:100190008B0300088B0300088B0300088B03000807
:1001A0008B0300088B0300088B030008000000008D
:1001B0008B0300088B0300088B0300088B030008E7
:1001C0008B0300088B030008000000000000000003
:1001D00000000000000000008B0300080000000089
:1001E000000000000000000000000000000000000F
:1001F00000000000000000008B0300088B030008D3
:100200008B0300088B030008000000008B0300082C
:100210008B0300088B0300088B0300088B03000886
:100220008B030008000000008B03000800000000A2
:100230008B0300088B030008000000008B030008FC
:100240008B0300088B0300088B0300088B03000856
:100250008B0300088B0300088B0300088B03000846
:100260008B0300088B0300088B0300088B03000836
:100270008B0300088B0300088B03000800000000BC
:100280008B0300088B0300088B0300088B03000816
:10029000000000008B0300088B0300080000000032
:1002A000000000008B0300088B0300088B0300088C
:1002B0008B0300088B0300088B0300088B030008E6
:1002C0008B0300088B0300088B03000800F002F882
:1002D00000F03CF80AA090E8000C82448344AAF1A4
:1002E0000107DA4501D100F031F8AFF2090EBAE8A2
:1002F0000F0013F0010F18BFFB1A43F0010318475A
:10030000B02D0000E02D0000103A24BF78C878C15D
:10031000FAD8520724BF30C830C144BF04680C600B
:10032000704700000023002400250026103A28BF53
:1003300078C1FBD8520728BF30C148BF0B60704757
:100340001FB502F07BFE1FBD10B510BD00F05CF8BC
:100350001146FFF7F5FF02F0FBFC00F07AF803B45A
:10036000FFF7F2FF03BC00F081F800000A48804765
:100370000A4880470A480047FEE7FEE7FEE7FEE737
:10038000FEE7FEE7FEE7FEE7FEE7FEE70548064973
:10039000064A074B7047000021050008492A00085B
:1003A000CD020008881400240004002088160024D0
:1003B000000000204FF0000200B513469446964618
:1003C000203922BFA0E80C50A0E80C50B1F1200168
:1003D000BFF4F7AF090728BFA0E80C5048BF0CC016
:1003E0005DF804EB890028BF40F8042B08BF704774
:1003F00048BF20F8022B11F0804F18BF00F8012BE6
:100400007047704770477047754600F02BF8AE464E
:1004100005006946534620F00700854618B020B510
:10042000FFF7B4FFBDE820404FF000064FF0000793
:100430004FF000084FF0000BAC46ACE8C009ACE848
:10044000C009ACE8C009ACE8C00921F007018D463D
:10045000704710B50446AFF300802046BDE8104059
:10046000FFF77DBF004870471000002401491820A5
:10047000ABBEFEE72600020070470000000000004F
:10048000FFE7FEE70000000080B584B00020C4F262
:10049000020000F021FB002832D0FFE70020C4F268
:1004A000020000F0FDFA40F27000C2F2004003903A
:1004B0004FF4007002900298012820DBFFE70298B9
:1004C000039901F01F010844019003980090BFF3C5
:1004D0004F8FFFE700984EF65C71CEF20001086086
:1004E0000098203000900198203801900198002851
:1004F000F0DCFFE7BFF34F8FBFF36F8FFFE7FFE73E
:1005000004B080BD00000000704700000000000043
:1005100081B0EFF3108072B60090FFE7FEE70000B5
:1005200044F60C00C5F60200016841F002010160CA
:10053000FFE744F60400C5F60200006880040028C6
:1005400001D4FFE7F5E7704740F20800C2F200402F
:10055000006841F28041C2F200410A68104408601C
:10056000704700000000000080B582B0032000F05A
:10057000A7F800F0ADF844F21841C5F602010A6888
:10058000C2F3032243F25603C0F600039A5C02F062
:100590001F02D04000900098096801F00F01595CDB
:1005A00001F01F01C84040F20401C2F2004108609E
:1005B000009840F20001C2F2004108600F2000F0F4
:1005C0000FF8002803D0FFE70120019004E000F0BD
:1005D00047F800200190FFE7019802B080BD0000BD
:1005E00080B582B0009040F20800C2F2004000687E
:1005F000002803D1FFE7012001902EE040F2000027
:10060000C2F20040006840F20801C2F200410968ED
:100610004FF47A72B2FBF1F1B0FBF1F000F0E4F9C3
:10062000002803D0FFE70120019016E000980F2872
:100630000DD8FFE700994FF0FF30002200F024F8BA
:10064000009840F20C01C2F20041086002E0012073
:10065000019002E000200190FFE7019802B080BD08
:1006600081B0FFE744F2F440C5F60200016841F0B2
:1006700002010160006800F0020000900098FFE7AE
:1006800001B070470000000080B586B0059004916D
:10069000039202F0D5FA029005980299049A039BFE
:1006A0000190084611461A4602F05EF80199009042
:1006B0000846009902F00CFB06B080BD0000000067
:1006C00080B582B00190019802F022FB02B080BD9B
:1006D0008AB044F21040C5F60200006800F038000D
:1006E00001461828019100F26C810199DFE811F0B0
:1006F00019006901690169016901690169016901FB
:100700003B006901690169016901690169016901C8
:1007100041006901690169016901690169016901B2
:10072000470044F20040C5F60200006800F02000D7
:100730000021B1EB501F0FD0FFE744F20040C5F697
:1007400002000068C0F3C10049F20001C0F2D031DC
:1007500021FA00F0029005E049F20000C0F2D0302A
:100760000290FFE733E140F60010C0F23D00029036
:100770002DE141F20020C0F27A00029027E144F21C
:100780002840C5F60200016801F0030108910068E5
:10079000C0F30510079044F22C40C5F60200006833
:1007A00000F001000690069844F23441C5F60201BB
:1007B000096889B2C908484300EE100AB8EE400A39
:1007C0008DED040A0798002800F0F780FFE70898ED
:1007D0000028009009D0FFE7009801286AD0FFE7C1
:1007E0000098022800F08A80ACE044F20040C5F690
:1007F0000200006800F020000021B1EB501F34D04F
:10080000FFE744F20040C5F602000068C0F3C100F3
:1008100049F20001C0F2D03121FA00F005909DEDBF
:10082000050AB8EE400A9DED071AB8EE411A80EEAF
:10083000010A44F23040C5F6020000686FF35F2001
:1008400001EE100AB8EE411A9DED042A9FED623ABE
:1008500082EE032A31EE021AB7EE002A31EE021AB6
:1008600020EE010A8DED030A23E09DED070AB8EEA4
:10087000400A9FED5B1A81EE000A44F23040C5F653
:10088000020000686FF35F2001EE100AB8EE411A13
:100890009DED042A9FED503A82EE032A31EE021AB2
:1008A000B7EE002A31EE021A20EE010A8DED030A9E
:1008B000FFE76BE09DED070AB8EE400A9FED471A8F
:1008C00081EE000A44F23040C5F6020000686FF382
:1008D0005F2001EE100AB8EE411A9DED042A9FED4B
:1008E0003E3A82EE032A31EE021AB7EE002A31EECA
:1008F000021A20EE010A8DED030A47E09DED070A7A
:10090000B8EE400A9FED331A81EE000A44F23040FF
:10091000C5F6020000686FF35F2001EE100AB8EE22
:10092000411A9DED042A9FED2C3A82EE032A31EE06
:10093000021AB7EE002A31EE021A20EE010A8DEDFE
:10094000030A23E09DED070AB8EE400A9FED231A43
:1009500081EE000A44F23040C5F6020000686FF3F1
:100960005F2001EE100AB8EE411A9DED042A9FEDBA
:100970001A3A82EE032A31EE021AB7EE002A31EE5D
:10098000021A20EE010A8DED030AFFE744F230401F
:10099000C5F60200006880B2012101EB50200990E9
:1009A0009DED030A9DED091AB8EE411A80EE010A89
:1009B000BCEEC00A8DED020A02E000200290FFE7C3
:1009C00005E040F60010C0F23D000290FFE70298FB
:1009D0000AB070470024F44A000000460024744A1C
:1009E0000024744C0000000080B582B00190019892
:1009F00001F07EFF02B080BDFFE7FEE700000000CF
:100A000082B00190019844F2E041C5F602010A6803
:100A1000104308600868019908400090009802B0EF
:100A2000704700000000000082B00190019844F27D
:100A3000E041C5F602010A681043086008680199A0
:100A400008400090009802B07047000000000000CD
:100A500082B00190019844F2E841C5F602010A68AB
:100A6000104308600868019908400090009802B09F
:100A7000704700000000000082B00190019844F22D
:100A8000E841C5F602010A68104308600868019948
:100A900008400090009802B070470000000000007D
:100AA00081B0009000981021816001B07047000073
:100AB00083B002900191029800900098019943F24E
:100AC0006602C0F60002515C0844416921F004014D
:100AD000416103B07047000081B000900098006849
:100AE000C0F3001001B0704784B0039002910192EE
:100AF000039800900098029943F26602C0F6000243
:100B0000515C405820F0C000019908430099029BB5
:100B1000D25C885004B0704784B003900291019277
:100B2000039800900098029943F26602C0F6000212
:100B3000515C405820F48060019908430099029B61
:100B4000D25C885004B0704784B003900291019247
:100B5000039800900098029943F26602C0F60002E2
:100B6000515C405820F4C040019908430099029B11
:100B7000D25C885004B0704784B003900291019217
:100B8000039800900098029943F26602C0F60002B2
:100B9000515C405820F49070019908430099029BE1
:100BA000D25C885004B0704784B0039002910192E7
:100BB000039800900098029943F26602C0F6000282
:100BC000515C405820F40070019908430099029B41
:100BD000D25C885004B0704780B583B00290019118
:100BE00000920198202101EB8002029B40F2000C50
:100BF000C4F2020C634508BF820040F60000C4F254
:100C00000200125822F0FF02009B42EA0302019BFD
:100C100001EB8301DDF808E0E64508BF99000A50C2
:100C200003B080BD0000000084B0039002910192E7
:100C3000039800900098029943F26602C0F6000201
:100C4000515C405820F4C050019908430099029B20
:100C5000D25C885004B0704784B003900291019236
:100C6000039800900098029943F26602C0F60002D1
:100C7000515C405820F44030019908430099029B90
:100C8000D25C885004B0704742F20000C5F20020E8
:100C9000006800F00F00704781B0009042F2000041
:100CA000C5F20020016821F00F01009A1143016094
:100CB00001B070470000000080B588B00590049135
:100CC0000498006890FAA0F006900698002804D1D5
:100CD000FFE720208DF81F0005E00698B0FA80F0AD
:100CE0008DF81F00FFE79DF81F000390FFE70498B1
:100CF00000680399C84000284FD0FFE704980068B7
:100D00000399012202FA01F108400290029800289A
:100D10003FD0FFE704984068012805D0FFE704981A
:100D20004068022810D1FFE705980299049A92685A
:100D300000F0C6F8059804990A68C968019111463F
:100D4000019A00F099F8FFE705980299049A126950
:100D500000F0A2F804984068022813D1FFE7029837
:100D6000FF2807D8FFE705980299049A526900F016
:100D70002FF806E005980299049A526900F040F8AD
:100D8000FFE7FFE705980299049A526800F060F8BF
:100D9000FFE7039801300390A9E7002008B080BD69
:100DA00082B001900091009800040199886102B01E
:100DB000704700000000000082B001900091009890
:100DC00000040199886102B0704700000000000033
:100DD00083B00290019100920298006A019901FB90
:100DE00001F24A435143C1EB01129043009A51432F
:100DF00008430299086203B0704700000000000039
:100E000083B00290019100920298406A0199090A08
:100E100001FB01F24A435143C1EB01129043009A96
:100E2000514308430299486203B070470000000034
:100E300082B00190009100980199886102B07047DA
:100E400082B00190009100980199886102B07047CA
:100E500083B0029001910092029800680199494381
:100E600001EB41029043009A514308430299086004
:100E700003B070470000000083B00290019100921F
:100E80000298406801998843009A514308430299A7
:100E9000486003B07047000083B002900191009257
:100EA0000298C0680199494301EB41029043009ABE
:100EB000514308430299C86003B070470000000026
:100EC00083B0029001910092029880680199494391
:100ED00001EB41029043009A514308430299886014
:100EE00003B070470000000083B0029001910298A7
:100EF000406900900098019900EA010221EA00008F
:100F000040EA02400299886103B070470000000087
:100F100084B0039002910192009303984EF6985189
:100F2000CEF200010860019820F01F004EF69C519F
:100F3000CEF2000108600098029940EA012040F0DA
:100F400001004EF6A051CEF20001086004B07047D7
:100F5000BFF35F8F4EF69450CEF200000021016087
:100F6000704700000000000081B00090009840F041
:100F700001004EF69451CEF200010860BFF34F8F8E
:100F8000BFF36F8F01B0704781B0009044F60C0042
:100F9000C5F60200016821F00701009A11430160C3
:100FA00001B070470000000044F61800C5F60200CA
:100FB0000068C0F34030704781B0009044F61800DC
:100FC000C5F60200016821F44041009A1143016016
:100FD00001B070470000000044F20040C5F6020076
:100FE0000068C0F30020704785B0DDF814C004909D
:100FF0000391029201939DED040AB8EE400A9DED23
:10100000031AB8EE411A80EE010A9DED021AB8EEFD
:10101000411A9DED012AB8EE422A9FED0E3A82EE6A
:10102000032A31EE021A20EE010A8DED000A9DED31
:10103000000A9DED051AB8EE411A80EE010A8DED09
:10104000000A9DED000ABCEEC00A10EE100A05B0C1
:10105000704700BF0000004644F21840C5F6020089
:10106000006800F00F00704744F21C40C5F6020013
:10107000006800F07000704744F21C40C5F60200A2
:10108000006800F4E060704782B001909DF80400B1
:1010900044F24C41C5F602010844009001980099C1
:1010A0000968020EC0F304239A401140D94040EA77
:1010B000014002B07047000080B594B0139000204A
:1010C00012900E9000F0F0FC1190119803280D90F2
:1010D0002ED80D99DFE801F002131F2B00F000FB62
:1010E00000280BD0FFE700F0F3FAC00849F2000136
:1010F000C0F2D03121FA00F01290FFE719E0FFF7BB
:101100006BFF002806D0FFE740F60010C0F23D005C
:101110001290FFE70DE000F0D3FA002806D0FFE7B9
:1011200041F20020C0F27A001290FFE701E0FFE7F1
:10113000FFE71398002101601398416013988160C4
:1011400000F02AFB109000F02FFB0F9000F0D8FA6F
:10115000002804D0FFE700F017FB0E90FFE710987F
:1011600000284FD0FFE700F0DFFA002815D0FFE796
:10117000129810990F9A0E9B0C900B910A9209935A
:1011800000F01EFB694608600C980B990A9A099BAF
:10119000FFF72AFF13990860FFE700F0CDFA002857
:1011A00015D0FFE7129810990F9A0E9B089007919F
:1011B0000692059300F010FB6946086008980799AD
:1011C000069A059BFFF710FF13994860FFE700F0B0
:1011D000C7FA002815D0FFE7129810990F9A0E9BB6
:1011E000049003910292019300F002FB69460860AB
:1011F00004980399029A019BFFF7F6FE1399886001
:10120000FFE7FFE714B080BD80B594B013900020D5
:1012100012900E9000F048FC1190119803280D9048
:101220002ED80D99DFE801F002131F2B00F058FAB9
:1012300000280BD0FFE700F04BFAC00849F200018C
:10124000C0F2D03121FA00F01290FFE719E0FFF769
:10125000C3FE002806D0FFE740F60010C0F23D00B4
:101260001290FFE70DE000F02BFA002806D0FFE710
:1012700041F20020C0F27A001290FFE701E0FFE7A0
:10128000FFE7139800210160139841601398816073
:1012900000F062FB109000F067FB0F9000F034FB51
:1012A000002804D0FFE700F04FFB0E90FFE71098F6
:1012B00000284FD0FFE700F02FFB002815D0FFE7F4
:1012C000129810990F9A0E9B0C900B910A92099309
:1012D00000F056FB694608600C980B990A9A099B26
:1012E000FFF782FE13990860FFE700F01DFB00285E
:1012F00015D0FFE7129810990F9A0E9B089007914E
:101300000692059300F048FB694608600898079923
:10131000069A059BFFF768FE13994860FFE700F007
:101320000BFB002815D0FFE7129810990F9A0E9B1F
:10133000049003910292019300F03AFB6946086021
:1013400004980399029A019BFFF74EFE1399886057
:10135000FFE7FFE714B080BD80B594B01390002084
:1013600012900E9000F0A0FB1190119803280D90A0
:101370002ED80D99DFE801F002131F2B00F0B0F911
:1013800000280BD0FFE700F0A3F9C00849F20001E4
:10139000C0F2D03121FA00F01290FFE719E0FFF718
:1013A0001BFE002806D0FFE740F60010C0F23D000B
:1013B0001290FFE70DE000F083F9002806D0FFE768
:1013C00041F20020C0F27A001290FFE701E0FFE74F
:1013D000FFE7139800210160139841601398816022
:1013E00000F022FB109000F027FB0F9000F0F4FAC1
:1013F000002804D0FFE700F00FFB0E90FFE71098E5
:10140000002853D0FFE7129800284FD0FFE700F0E4
:10141000EBFA002815D0FFE7129810990F9A0E9B4F
:101420000C900B910A92099300F012FB6946086038
:101430000C980B990A9A099BFFF7D6FD139908603F
:10144000FFE700F0D9FA002815D0FFE712981099AD
:101450000F9A0E9B089007910692059300F004FBEB
:101460006946086008980799069A059BFFF7BCFD36
:1014700013994860FFE700F0C7FA002815D0FFE78E
:10148000129810990F9A0E9B049003910292019367
:1014900000F0F6FA6946086004980399029A019BE5
:1014A000FFF7A2FD13998860FFE7FFE714B080BD46
:1014B00044F21040C5F60200006800F038007047A2
:1014C00044F21040C5F60200006800F03800704792
:1014D00044F21840C5F60200006800F470607047DE
:1014E00080B588B0079000200690079800F0CCF8EF
:1014F00001460822C0F20072904202916AD0FFE7D2
:1015000040F20830C0F20070029981424BD0FFE7F0
:101510000820C0F201700299814272D0FFE740F2C8
:101520000830C0F20170029981426AD0FFE70820BA
:10153000C0F20270029981426FD0FFE740F208309A
:10154000C0F202700299814267D0FFE70820C0F222
:101550000370029981426CD0FFE740F20830C0F27C
:1015600003700299814264D0FFE70820C0F2047042
:10157000029981426ED0FFE740F20830C0F2047059
:101580000299814266D0FFE70820C0F205700299F7
:1015900081426BD0FFE740F20830C0F2057002993B
:1015A000814263D06CE001F063F90190FFF790FF96
:1015B000C0F3032043F26E01C0F60001085C00F0A6
:1015C0001F00019921FA00F001F00AF901F038F941
:1015D000069056E001F04CF90090FFF779FFC0F358
:1015E000032043F26E01C0F60001085C00F01F000A
:1015F000009921FA00F001F0F3F801F009F90690E2
:101600003FE000F0E1F9002806D0FFE703A8FFF76C
:10161000FBFD04980690FFE733E000F03DFA002858
:1016200006D0FFE703A8FFF797FE04980690FFE7B0
:1016300027E000F055F800280BD0FFE700F048F84D
:10164000C00849F20001C0F2D03121FA00F0069042
:10165000FFE716E0FFF7C0FC002806D0FFE740F6E2
:101660000010C0F23D000690FFE70AE000F040F8ED
:10167000002804D0FFE74FF400400690FFE700E0A9
:10168000FFE7069808B080BD80B582B00190019850
:10169000FFF7FAFC02B080BD44F20040C5F602003C
:1016A000016841F4803101607047000000000000D3
:1016B00044F20040C5F602000068C0F340407047A5
:1016C00044F20040C5F602000068C0F34040704795
:1016D00044F20040C5F60200006800F018007047B0
:1016E00044F20040C5F602000068C0F38000704775
:1016F00044F27040C5F602000068C0F34000704735
:1017000044F22C40C5F60200006800F0010070476A
:1017100044F22C40C5F60200016841F480310160BA
:10172000704700000000000044F22C40C5F60200A3
:101730000068C0F30040704744F22C40C5F6020038
:101740000068C0F34040704744F22C40C5F60200E8
:10175000016841F480210160704700000000000032
:1017600044F22C40C5F602000068C0F38040704788
:1017700044F20040C5F60200016841F0807101604A
:10178000704700000000000044F23440C5F602003B
:10179000006880B2C008704744F22840C5F60200D5
:1017A0000068C0F30510704744F23040C5F60200EF
:1017B00000686FF35F2001307047000000000000F8
:1017C00044F23040C5F60200006880B2012101EB0E
:1017D000502070470000000044F23040C5F602007F
:1017E000006800F4FE00012101EB1040704700008A
:1017F00044F23040C5F60200006800F0FE400121CE
:1018000001EB10607047000044F20040C5F6020092
:101810000068C0F34060704781B0009044F22840F7
:10182000C5F60200016821F47C71009A41EA0211B8
:10183000016001B07047000081B0009044F2304078
:10184000C5F60200016840F2FF129143009A013A86
:101850001143016001B0704781B0009044F2304004
:10186000C5F60200016821F47E41009A4FF600633C
:10187000CFF6FF7303EB42221143016001B07047C2
:1018800081B0009044F23040C5F60200016821F4B6
:10189000FE01009A0023CFF6FF7303EB02421143CF
:1018A000016001B07047000081B0009044F2304008
:1018B000C5F60200016821F0FE41009A013A41EAB2
:1018C0000261016001B0704781B0009044F22C4089
:1018D000C5F60200016821F00C01009A41EA82017C
:1018E000016001B07047000081B0009044F22C40CC
:1018F000C5F60200016821F00201009A41EA4201A6
:10190000016001B07047000044F22C40C5F60200AF
:101910000068C0F30010704744F22C40C5F6020086
:101920000068C0F3C040704744F22C40C5F6020086
:101930000068C0F30050704744F22C40C5F6020026
:101940000068C0F34050704744F23C40C5F60200C6
:10195000006880B2C008704744F22840C5F6020013
:101960000068C0F30530704744F23840C5F6020005
:1019700000686FF35F200130704700000000000036
:1019800044F23840C5F60200006880B2012101EB44
:10199000502070470000000044F23840C5F60200B5
:1019A000006800F4FE00012101EB104070470000C8
:1019B00044F23840C5F60200006800F0FE40012104
:1019C00001EB10607047000044F20040C5F60200D1
:1019D0000068C0F3C060704744F22C40C5F60200B6
:1019E0000068C0F30020704744F22C40C5F60200A6
:1019F0000068C0F38050704744F22C40C5F60200E6
:101A00000068C0F3C050704744F22C40C5F6020095
:101A10000068C0F30060704744F24440C5F602001D
:101A2000006880B2C008704744F22840C5F6020042
:101A30000068C0F30550704744F24040C5F602000C
:101A400000686FF35F200130704700000000000065
:101A500044F24040C5F60200006880B2012101EB6B
:101A6000502070470000000044F24040C5F60200DC
:101A7000006800F4FE00012101EB104070470000F7
:101A800044F24040C5F60200006800F0FE4001212B
:101A900001EB10607047000044F20040C5F6020000
:101AA0000068C0F34070704744F22840C5F6020059
:101AB000006800F00300704781B0009044F22840B5
:101AC000C5F60200016821F00301009A114301608C
:101AD00001B070470000000081B0009044F218404F
:101AE000C5F60200016821F00F01009A1143016060
:101AF00001B070470000000081B0009044F21C402B
:101B0000C5F60200016821F07001009A11430160DE
:101B100001B070470000000081B0009044F21C400A
:101B2000C5F60200016821F4E061009A11430160EA
:101B300001B070470000000081B0009044F21840EE
:101B4000C5F60200016821F07001009A114301609E
:101B500001B070470000000081B0009044F22040C6
:101B6000C5F60200016821F07001009A114301607E
:101B700001B070470000000082B001909DF80400A1
:101B800044F24C41C5F602010844009000980168F7
:101B9000019A130EC2F3042C03FA0CF39943C2F317
:101BA000074202FA0CF21143016002B070470000D4
:101BB00081B0009044F21040C5F60200016821F0A7
:101BC0000701009A1143016001B070470000000056
:101BD00081B0009044F21840C5F60200016821F47B
:101BE0007061009A1143016001B07047000000006D
:101BF00080B582B001900198FFF7BEFF02B080BDB2
:101C000081B00090009840F20001C2F200410860EB
:101C100001B070470000000081B00090009801689A
:101C200021F08001016001B0704700000000000059
:101C300081B000900098816821F08001816001B03E
:101C4000704700000000000081B0009000984169DA
:101C500041F00101416101B0704700000000000047
:101C600080B584B0039002910398006801900398B6
:101C70000021C4F20101884225D0FFE70398B0F1AA
:101C8000804F20D0FFE7039840F20041C4F20001EA
:101C9000884218D0FFE7039840F60001C4F2000123
:101CA000884210D0FFE7039840F60041C4F20001DB
:101CB000884208D0FFE7039840F20041C4F20101D6
:101CC000884208D1FFE7019820F070000299496826
:101CD00008430190FFE703980021C4F20101884204
:101CE0004DD0FFE70398B0F1804F48D0FFE703984D
:101CF00040F20041C4F20001884240D0FFE703985F
:101D000040F60001C4F20001884238D0FFE7039892
:101D100040F60041C4F20001884230D0FFE703984A
:101D200040F20041C4F20101884228D0FFE7039845
:101D300044F20001C4F20101884220D0FFE7039879
:101D400044F20041C4F20101884218D0FFE7039831
:101D500044F60001C4F20101884210D0FFE7039865
:101D60004EF20001C4F20001884208D0FFE7039858
:101D70004EF20041C4F20001884208D1FFE7019809
:101D800020F440700299C96808430190FFE7019868
:101D90000399086003980299896800F039F803985C
:101DA0000299098800F04CF803980021C4F201015F
:101DB000884220D0FFE7039840F20041C4F20101BD
:101DC000884218D0FFE7039844F20001C4F20101F1
:101DD000884210D0FFE7039844F20041C4F20101A9
:101DE000884208D0FFE7039844F60001C4F20101DD
:101DF000884206D1FFE703980299096900F028F8A4
:101E0000FFE70398FFF720FF002004B080BD00002B
:101E100082B00190009100980199C86202B07047A9
:101E200082B001900091019880684BF6F871CFF66E
:101E3000FE710840009908430199886002B070471C
:101E400082B00190009100980199886202B07047B9
:101E500082B00190009100980199086302B0704728
:101E600082B0019000910198406820F070000099C4
:101E700008430199486002B070470000000000006C
:101E800081B0009000980221016201B0704700000B
:101E900081B0009000980421016201B070470000F9
:101EA00081B0009000980821016201B070470000E5
:101EB00081B000900098416821F490414160009801
:101EC000816821F02A01816001B0704700000000A4
:101ED00081B000900098016821F00051016001B0CC
:101EE000704700000000000081B000900098016879
:101EF00041F00101016001B07047000000000000E6
:101F000080B586B0059004910120039000200290D6
:101F1000059800F025F9002840F0E480FFE70598D7
:101F2000006846F6F311CEF6FF71084004998A68FE
:101F30000B69D1F814C0C9691A4342EA0C02114373
:101F400008430599086005980499C96800F0A0F94C
:101F500005980499896900F05FF9059841F200013C
:101F6000C4F20101884208D1FFE740F20830C0F214
:101F70000070FFF7B5FA029093E0059844F2004133
:101F8000C4F20001884207D1FFE70820C0F20070C8
:101F9000FFF7A6FA029083E0059844F60001C4F228
:101FA0000001884207D1FFE70820C0F20070FFF768
:101FB00097FA029073E0059844F60041C4F20001DC
:101FC000884207D1FFE70820C0F20070FFF788FAC7
:101FD000029063E0059845F20001C4F200018842D6
:101FE00007D1FFE70820C0F20070FFF779FA0290EE
:101FF00053E0059841F20041C4F20101884208D142
:10200000FFE740F20830C0F20070FFF769FA029073
:1020100042E0059847F60001C4F20001884207D16A
:10202000FFE70820C0F20070FFF75AFA029032E092
:10203000059847F60041C4F20001884207D1FFE746
:102040000820C0F20070FFF74BFA029022E00598DA
:1020500041F60001C4F20101884208D1FFE740F2D5
:102060000830C0F20070FFF73BFA029011E00598CB
:1020700041F60041C4F20101884208D1FFE740F275
:102080000830C0F20070FFF72BFA029000E0FFE783
:10209000FFE7FFE7FFE7FFE7FFE7FFE7FFE7FFE710
:1020A000FFE70298002817D0FFE70498406800284F
:1020B00012D0FFE70020039005980299049A136854
:1020C000D2F804C0D269EE46CEF800C001921A469A
:1020D000019B00F04DF8FFE705980499096800F0AE
:1020E000ABF8FFE7039806B080BD000000000000D9
:1020F00081B000900098C069C0F3400001B0704703
:1021000081B000900098C069C0F3800001B07047B2
:1021100081B000900098C069C0F3C00001B0704762
:1021200081B000900098C069C0F3805001B0704742
:1021300081B000900098C069C0F3801001B0704772
:1021400081B000900098C069C0F3405001B0704762
:1021500081B000900098C069C0B2C00901B070475A
:1021600081B000900098006800F0010001B0704755
:1021700086B0DDF818C0059004910392029303988D
:102180000C2801D3FFE742E00698002801D1FFE7C1
:102190003CE00298B0F5004F23D1FFE704989DF88A
:1021A0000C1043F28002C0F6000252F82110B0FB7E
:1021B000F1F04000069900EB5100B0FBF1F080B265
:1021C000019001984FF6F07108400090019800F0DE
:1021D0000E00009941EA5000009000980599C860EF
:1021E00013E004989DF80C1043F28002C0F6000240
:1021F00052F82110B0FBF1F0069900EB5100B0FB52
:10220000F1F080B20599C860FFE7FFE7FFE706B08D
:10221000704700000000000082B00190009101981A
:10222000806820F44070009908430199886002B0EA
:10223000704700000000000082B0019000910198FA
:10224000C06A20F00F00BDF8001008430199C86271
:1022500002B070470000000083B002900191FFE7D8
:10226000FFE7029850E8020F20F06060019940EA11
:1022700041600090FFE70098029941E80202002ABD
:10228000EFD1FFE7FFE703B0704700000000000058
:1022900082B0019000910198406820F4405000996C
:1022A00008430199486002B0704700000000000038
:1022B00083B002900191FFE7FFE7029850E8020F18
:1022C00020F06040019940EA41700090FFE70098DB
:1022D000029941E80202002AEFD1FFE7FFE703B0CD
:1022E000704700000000000082B00A4601908DF89F
:1022F00003109DF803000199886202B07047000046
:1023000083B00290029801904EF21000CEF20000CD
:1023100000680090009801990131002904D0FFE77E
:10232000019801300190FFE7FFE7019800280ED0E7
:10233000FFE74EF21000CEF200000068C003002854
:1023400004D5FFE7019801380190FFE7EDE703B0FE
:10235000704700000000000080B582B0FEF7F8FD75
:10236000872100203E23C1F204030190019AFEF769
:10237000CFFD0420FEF7F8FD02B080BD0000000094
:1023800080B584B0FFE744F2D840C5F6020001688A
:1023900041F001010160006800F001000390039822
:1023A000FFE700F03DFC0521002200F06DF90B2154
:1023B00002900846029A0191114600F049FC0198EA
:1023C00000F0FEFB04B080BD80B590B000200F90FF
:1023D0000E900D900C900B900A9080210990084669
:1023E000FEF70EFB1020FEF70BFB0820FEF708FBA4
:1023F00001200890FEF704FB41F20000C5F6020040
:102400004FF4007107900691FEF71AFD40F6004068
:10241000C5F602004FF4006105900491FEF710FD2F
:102420004FF480500599039008460399FEF7C4FCC9
:1024300006980A9008990B91099A0C920D920E92A7
:102440000AAB079819460293FEF736FC04990A91E5
:10245000089A0B92099B0C930D930E93DDF814C010
:10246000019060460299FEF727FC03990A91089AA9
:102470000B920C92099B0D930E93DDF814C0009003
:1024800060460299FEF718FC10B080BD0000000005
:1024900080B588B0002007900690059004900390C6
:1024A000082102900846FEF7D3FAC720ADF80C00C9
:1024B000029804904FF0FF310591069040F60041DC
:1024C000C4F2000103AA084601911146FFF7C8FBB8
:1024D000019900900846FFF79FFB01980299FFF7CA
:1024E0009FFC01980299FFF7BBFC0198FFF7A0FB46
:1024F00008B080BD0000000080B596B000201590A7
:10250000149013901290119010900F900E900D90C7
:102510000C900B900A90099008900821C0F200716D
:1025200007900846FFF764FB4FF48020FEF7A4FAFB
:102530000820FEF779FA4FF44070089002200990C5
:1025400007980A900B900C9007210D9140F60040DF
:10255000C5F6020008A9FEF7AFFB0021C4F2020194
:102560002D2206900846079B05911946FEF734FB7D
:1025700005980799079AFEF7B7FA4FF48032059845
:102580000799FEF769FB4FF4807205980799FEF7EB
:10259000F3FA05980799079AFEF706FB4FF4806255
:1025A00005980799FEF7B8FA05980799079AFEF774
:1025B0003BFB05980799079AFEF7C6FA0598079915
:1025C000FEF776FA00F034FB0521079A00F094F844
:1025D000272104900846049A0391114600F058FB05
:1025E000039800F005FB07980E904FF4E1310F912E
:1025F0001090119012900C2113911490159044F6A4
:102600000001C4F200010EAA084602911146FFF72C
:1026100077FC0299019008460799FFF749FE029856
:102620000799FFF719FE0298FFF752FC0298FFF78F
:102630003FFC0298FFF758FCFFE744F60000C4F2A5
:102640000000FFF77DFD0121002800910BD0FFE77E
:1026500044F60000C4F20000FFF762FDB0FA80F01B
:1026600040090090FFE70098C007002801D0FFE76D
:10267000E3E716B080BD0000FFE7FEE700000000C2
:10268000FFE7FEE70000000088B007900691059282
:10269000079800F0070004900498C0F1070005288F
:1026A00003D3FFE70420019004E00498C0F1070081
:1026B0000190FFE70198039004980430062803D89E
:1026C000FFE70020009003E0049803380090FFE744
:1026D0000098029006980399012202FA01F101394B
:1026E000084002998840059B02FA01F1013919401E
:1026F000084308B07047000088B007900691059223
:10270000079800F0070004900498C0F1070005281E
:1027100003D3FFE70420019004E00498C0F1070010
:102720000190FFE70198039004980430062803D82D
:10273000FFE70020009003E0049803380090FFE7D3
:102740000098029006980399012202FA01F10139DA
:10275000084002998840059B02FA01F101391940AD
:10276000084308B07047000088B0079006910592B2
:10277000079800F0070004900498C0F107000528AE
:1027800003D3FFE70420019004E00498C0F10700A0
:102790000190FFE70198039004980430062803D8BD
:1027A000FFE70020009003E0049803380090FFE763
:1027B0000098029006980399012202FA01F101396A
:1027C000084002998840059B02FA01F1013919403D
:1027D000084308B070470000704700000000000088
:1027E00080B582B0019001980090FEF735FC00F0B2
:1027F0000F0043F26E01C0F60001085C00F01F00FC
:10280000009921FA00F002B080BD00000000000035
:1028100080B582B0019001980090FEF725FCC0F3CE
:10282000021043F26E01C0F60001085C00F01F00C8
:10283000009921FA00F002B080BD00000000000005
:1028400080B582B0019001980090FEF715FCC0F3AE
:10285000022043F26E01C0F60001085C00F01F0088
:10286000009921FA00F002B080BD000000000000D5
:1028700080B586B000200590FEF722FE014618289C
:1028800001912CD80199DFE801F00D2A2A2A2A2A81
:102890002A2A182A2A2A2A2A2A2A1E2A2A2A2A2AB6
:1028A0002A2A2400FEF714FFC00849F20001C0F2F2
:1028B000D03121FA00F0059012E040F60010C0F28D
:1028C0003D0005900CE041F20020C0F27A00059036
:1028D00006E002A8FEF7F0FB0298059000E0FFE793
:1028E000059806B080BD00007047000000000000A1
:1028F00080B582B0009000980138B0F1807F03D39A
:10290000FFE70120019019E0009801384EF2140110
:10291000CEF2000108604FF0FF300F2100F0D8F92F
:102920004EF21800CEF20000002101604EF21000BD
:10293000CEF20000072202600191FFE7019802B089
:1029400080BD00000000000080B5FDF7FDFD80BDEA
:1029500080B584B00220FEF79FF9FFE7FEF794F9F7
:10296000022801D0FFE7F9E70220FEF70DFB4FF444
:102970004040FEF721FBFFE7FEF716FB002801D1E0
:10298000FFE7F9E7FEF788FEFFE7FEF791FE012873
:1029900001D0FFE7F9E702200390FFF78DF8FEF77B
:1029A000B7FEFEF7D1FE0320FEF78EFF0020FEF7F4
:1029B0009BFF01200290FEF72FFF3220FEF73CFF25
:1029C0000298FEF749FF0398FEF75AFF0398FEF7B7
:1029D0006BFFFEF7CDFEFFE7FEF716FF012801D0E3
:1029E000FFE7F9E70820FFF777F80320FFF7E0F8A3
:1029F000FFE7FEF75DFD182801D0FFE7F9E70020AB
:102A0000FFF7E6F80820FFF767F840200190FFF78E
:102A100073F84FF48060FFF77FF80198FFF78CF8A8
:102A20000198FFF799F848F20040C1F2D770FFF71C
:102A3000E7F80F20FDF7D4FD002803D0FFE7FDF7EE
:102A400067FDFFE704B080BD4EF68850CEF200006F
:102A5000016841F47001016042F20000C5F20020FB
:102A6000006800F00F0006280AD8FFE742F20000D5
:102A7000C5F200200168072262F303010160FFE74D
:102A800044F20040C5F60200016841F00101016016
:102A900044F21041C5F6020100220A6001684EF6B8
:102AA0007F52CEF6F6221140016042F20000C5F2DC
:102AB0000020006800F00F0008280AD3FFE742F268
:102AC0000000C5F200200168072262F303010160E3
:102AD000FFE744F21840C5F602000021016044F20D
:102AE0001C40C5F60200016044F22040C5F6020019
:102AF000016044F22840C5F6020040F20022C0F214
:102B00000222026044F22C40C5F602000022C0F20C
:102B1000FF12026044F23040C5F6020040F280220B
:102B2000C0F20112026044F23440C5F602000160B6
:102B300044F23840C5F60200026044F23C40C5F65B
:102B40000200016044F24040C5F60200026044F217
:102B50004440C5F60200016044F20040C5F60200A0
:102B6000026822F48022026044F26040C5F602004E
:102B7000016044F2D440C5F602000068C004002899
:102B800014D4FFE744F2D440C5F60200016841F4D2
:102B90008051016044F20001C5F2002143F2D202EB
:102BA0000A60016821F480510160FFE7704700006E
:102BB0007047000000000000FFE7FEE70000000093
:102BC00081B00090009800280ED4FFE7009800F034
:102BD0001F01012202FA01F140094EF20012CEF269
:102BE000000242F82010FFE701B07047000000002B
:102BF00081B00090009800280ED4FFE7009800F004
:102C00001F01012202FA01F140094EF20012CEF238
:102C1000000242F82010FFE701B0704700000000FA
:102C20004EF60C50CEF200000068C0F30220704750
:102C30004EF60C50CEF200000068C0F30220704740
:102C40004EF60C50CEF200000068C0F30220704730
:102C500082B0019000910198002809D4FFE7009804
:102C6000000101994EF20042CEF2000288540AE0BF
:102C700000980001019901F00F014EF61452CEF2B6
:102C800000028854FFE702B0704700000000000017
:102C900082B0019000910198002809D4FFE70098C4
:102CA000000101994EF20042CEF2000288540AE07F
:102CB00000980001019901F00F014EF61452CEF276
:102CC00000028854FFE702B07047000000000000D7
:102CD00082B0019000910198002809D4FFE7009884
:102CE000000101994EF20042CEF2000288540AE03F
:102CF00000980001019901F00F014EF61452CEF236
:102D000000028854FFE702B0704700000000000096
:102D100083B00290029800F0070000904EF60C502D
:102D2000CEF200000168019101994FF6FF021140B7
:102D300001910199009A41EA02210022C0F2FA525F
:102D4000114301910199016003B070470000000038
:102D500080B5C8B000204790FFF7FEFAFDF704FCED
:102D60000390FFF7F5FDFFF72FFBFFF709FBFFF7D8
:102D70008FFBFFF7C1FB00F043F940F60040C5F6BA
:102D800002004FF48051FEF753F80120FFF7B8FA24
:102D9000FFE744F60000C4F20000FFF7D9F900286D
:102DA00001D1FFE7F5E744F60000C4F2000041213D
:102DB000FFF79AFAFFE744F60000C4F20000FFF7BD
:102DC000B7F9002801D1FFE7F5E740F60040C5F666
:102DD00002004FF48051FDF7E3FF0A20FFF790FA5D
:102DE00000200690FFE707A84FF4807100F018F963
:102DF0000590059800284CD0FFE740F60040C5F646
:102E000002004FF400610290FEF712F84FF4805177
:102E10000298FEF70DF80120FFF772FA00200490E7
:102E2000FFE704980599884219D2FFE7FFE744F6C7
:102E30000000C4F20000FFF78BF9002801D1FFE782
:102E4000F5E7049807A9095C44F60000C4F2000005
:102E5000FFF74AFAFFE7049801300490E1E7FFE743
:102E600044F60000C4F20000FFF762F9002801D127
:102E7000FFE7F5E740F60040C5F602004FF4805149
:102E80000190FDF78DFF4FF400610198FDF788FF79
:102E9000FFE70520FFF734FA44F60000C4F2000013
:102EA000FFF736F9002812D1FFE744F60000C4F21C
:102EB0000000FFF71DF9002809D1FFE744F60000E4
:102EC000C4F20000FFF71CF900280ED0FFE744F61B
:102ED0000000C4F200000090FEF7E2FF0098FEF749
:102EE000CFFF0098FEF7D4FFFFE740F60040C5F69D
:102EF00002004FF40061FDF7F7FF6420FFF700FACE
:102F000071E700000000000080B58AB008900791CA
:102F10000692089800F04CF805900598002803D117
:102F2000FFE70020099040E006980599884203D900
:102F3000FFE705980690FFE7089841F20401405822
:102F4000049004986FF31F3003900398C0F58050ED
:102F5000029002980699884203D9FFE706980290EA
:102F6000FFE707980899039A1144029A00F030F895
:102F70000698029988420CD9FFE7079802990844FD
:102F8000089A069B591A01911146019A00F020F8FF
:102F9000FFE7BFF35F8F049806990844089941F250
:102FA0000402885006980990FFE709980AB080BD8E
:102FB00081B0009000984FF480514058009941F240
:102FC00004028958401A01B0704700000000000058
:102FD00083B0029001910092FFE70098411E00919A
:102FE000002809D0FFE70198411C0191007802995F
:102FF0004A1C02920870F0E703B07047000000001E
:1030000080B540F27040C2F2004041F20C01FDF781
:10301000D1F941F27C40C2F200400021018080BD24
:1030200080B582B0019000910199009A40F2704001
:10303000C2F20040FFF768FF02B080BDF1EE100A57
:103040004FF6FF71C0F2C03120EA010040F040703D
:10305000E1EE100A704700000000010203040102C3
:10306000030406070809102840587088A0B800001B
:10307000000001020304010203040607080900001E
:103080000100000002000000040000000600000033
:10309000080000000A0000000C0000001000000002
:1030A000200000004000000080000000000100003F
:1030B000E0300008000000241000000008030008B1
:1030C000E030000800000020000400002403000895
:1030D000F0300008100000247816000024030008D7
:1030E0000090D0030090D003010000001000000009
:04000005080002CD20
:00000001FF
